:1001DC00FEFDFBF7EFDFBF7F1818FFFF183C66C36F
:1001EC00FFFF18181818FFFFC3C7CFDFFBF3E3C3DB
:1001FC003C7EC3C3C3C37E3C1C1E1F191818FFFFD3
:05020C00E50893F5B0C8
:100211007F0AEFD394007480948040127E18EED34D
:0E02210094007480948040031E80F31F80E4DC
:01022F0022AC
:0601A80093F5A075B0FF05
:1001AE007F0AEFD394007480948040217E14EED3A6
:1001BE0094007480948040127D18EDD39400748066
:0D01CE00948040031D80F31E80E41F80D547
:0101DB002201
:10000300E4F509C3E509940A748094805024E4F567
:1000130008C3E5089408748094805012E5089001A1
:10002300DC93F5A09001E412020C050880E30509B6
:1000330080D1E4F508C3E508940874809480500CDB
:10004300E5089001DC1201A8050880E9E4F509C37D
:10005300E509940A748094805024E4F508C3E50804
:100063009408748094805012E5089001DC93F5A005
:100073009001EC12020C050880E3050980D1E4F538
:1000830008C3E50894087480948050071201AE05F4
:100093000880EEE4F509C3E509940A74809480505E
:1000A30029E4F508C3E5089408748094805017E5A3
:1000B300089001DC93F5A0E5089001F493F5B012E4
:1000C3000211050880DE050980CCE4F508AF087E3F
:1000D30000C3EF940874809480501AC374079FFF81
:1000E300E49EFE74DC2FF58274013EF583E4120175
:1000F300A8050880D8E4F508C3E50894087480943B
:100103008050071201AE050880EEE4F509C3E50946
:10011300940A748094805029E4F508C3E508940890
:10012300748094805017E5089001DC93F5A0E508EE
:100133009001FC93F5B0120211050880DE050980D9
:10014300CCE4F508C3E50894087480948050071242
:1001530001AE050880EEE4F509C3E509940A74804D
:1001630094805029E4F508C3E508940874809480CA
:100173005017E5089001DC93F5A0E508900204937D
:10018300F5B0120211050880DE050980CCE4F508FC
:10019300C3E50894087480948040030200031201AD
:0501A300AE050880EB31
:03000000020230C9
:0C023000787FE4F6D8FD75810902000318
:00000001FF
